{
  "contractName": "Randoms",
  "abi": [
    {
      "inputs": [],
      "stateMutability": "nonpayable",
      "type": "constructor"
    },
    {
      "anonymous": false,
      "inputs": [
        {
          "indexed": true,
          "internalType": "address",
          "name": "owner",
          "type": "address"
        },
        {
          "indexed": true,
          "internalType": "address",
          "name": "approved",
          "type": "address"
        },
        {
          "indexed": true,
          "internalType": "uint256",
          "name": "tokenId",
          "type": "uint256"
        }
      ],
      "name": "Approval",
      "type": "event"
    },
    {
      "anonymous": false,
      "inputs": [
        {
          "indexed": true,
          "internalType": "address",
          "name": "owner",
          "type": "address"
        },
        {
          "indexed": true,
          "internalType": "address",
          "name": "operator",
          "type": "address"
        },
        {
          "indexed": false,
          "internalType": "bool",
          "name": "approved",
          "type": "bool"
        }
      ],
      "name": "ApprovalForAll",
      "type": "event"
    },
    {
      "anonymous": false,
      "inputs": [
        {
          "indexed": true,
          "internalType": "address",
          "name": "previousOwner",
          "type": "address"
        },
        {
          "indexed": true,
          "internalType": "address",
          "name": "newOwner",
          "type": "address"
        }
      ],
      "name": "OwnershipTransferred",
      "type": "event"
    },
    {
      "anonymous": false,
      "inputs": [
        {
          "indexed": true,
          "internalType": "address",
          "name": "from",
          "type": "address"
        },
        {
          "indexed": true,
          "internalType": "address",
          "name": "to",
          "type": "address"
        },
        {
          "indexed": true,
          "internalType": "uint256",
          "name": "tokenId",
          "type": "uint256"
        }
      ],
      "name": "Transfer",
      "type": "event"
    },
    {
      "inputs": [],
      "name": "PublicSaleTimeStart",
      "outputs": [
        {
          "internalType": "uint256",
          "name": "",
          "type": "uint256"
        }
      ],
      "stateMutability": "view",
      "type": "function",
      "constant": true
    },
    {
      "inputs": [
        {
          "internalType": "address",
          "name": "",
          "type": "address"
        }
      ],
      "name": "TxPerformedPrivate",
      "outputs": [
        {
          "internalType": "uint256",
          "name": "",
          "type": "uint256"
        }
      ],
      "stateMutability": "view",
      "type": "function",
      "constant": true
    },
    {
      "inputs": [
        {
          "internalType": "address",
          "name": "",
          "type": "address"
        }
      ],
      "name": "TxPerformedPublic",
      "outputs": [
        {
          "internalType": "uint256",
          "name": "",
          "type": "uint256"
        }
      ],
      "stateMutability": "view",
      "type": "function",
      "constant": true
    },
    {
      "inputs": [],
      "name": "_privateSaleTimeEnds",
      "outputs": [
        {
          "internalType": "uint256",
          "name": "",
          "type": "uint256"
        }
      ],
      "stateMutability": "view",
      "type": "function",
      "constant": true
    },
    {
      "inputs": [],
      "name": "_privateSaleTimeStart",
      "outputs": [
        {
          "internalType": "uint256",
          "name": "",
          "type": "uint256"
        }
      ],
      "stateMutability": "view",
      "type": "function",
      "constant": true
    },
    {
      "inputs": [],
      "name": "amountForAIRDROPS",
      "outputs": [
        {
          "internalType": "uint256",
          "name": "",
          "type": "uint256"
        }
      ],
      "stateMutability": "view",
      "type": "function",
      "constant": true
    },
    {
      "inputs": [
        {
          "internalType": "address",
          "name": "to",
          "type": "address"
        },
        {
          "internalType": "uint256",
          "name": "tokenId",
          "type": "uint256"
        }
      ],
      "name": "approve",
      "outputs": [],
      "stateMutability": "nonpayable",
      "type": "function"
    },
    {
      "inputs": [],
      "name": "availableToMintInPublic",
      "outputs": [
        {
          "internalType": "uint256",
          "name": "",
          "type": "uint256"
        }
      ],
      "stateMutability": "view",
      "type": "function",
      "constant": true
    },
    {
      "inputs": [
        {
          "internalType": "address",
          "name": "owner",
          "type": "address"
        }
      ],
      "name": "balanceOf",
      "outputs": [
        {
          "internalType": "uint256",
          "name": "",
          "type": "uint256"
        }
      ],
      "stateMutability": "view",
      "type": "function",
      "constant": true
    },
    {
      "inputs": [],
      "name": "baseURI_",
      "outputs": [
        {
          "internalType": "string",
          "name": "",
          "type": "string"
        }
      ],
      "stateMutability": "view",
      "type": "function",
      "constant": true
    },
    {
      "inputs": [],
      "name": "contractDeployedTime",
      "outputs": [
        {
          "internalType": "uint256",
          "name": "",
          "type": "uint256"
        }
      ],
      "stateMutability": "view",
      "type": "function",
      "constant": true
    },
    {
      "inputs": [
        {
          "internalType": "uint256",
          "name": "tokenId",
          "type": "uint256"
        }
      ],
      "name": "getApproved",
      "outputs": [
        {
          "internalType": "address",
          "name": "",
          "type": "address"
        }
      ],
      "stateMutability": "view",
      "type": "function",
      "constant": true
    },
    {
      "inputs": [],
      "name": "isActive",
      "outputs": [
        {
          "internalType": "bool",
          "name": "",
          "type": "bool"
        }
      ],
      "stateMutability": "view",
      "type": "function",
      "constant": true
    },
    {
      "inputs": [
        {
          "internalType": "address",
          "name": "owner",
          "type": "address"
        },
        {
          "internalType": "address",
          "name": "operator",
          "type": "address"
        }
      ],
      "name": "isApprovedForAll",
      "outputs": [
        {
          "internalType": "bool",
          "name": "",
          "type": "bool"
        }
      ],
      "stateMutability": "view",
      "type": "function",
      "constant": true
    },
    {
      "inputs": [],
      "name": "maxMintForPrivate",
      "outputs": [
        {
          "internalType": "uint256",
          "name": "",
          "type": "uint256"
        }
      ],
      "stateMutability": "view",
      "type": "function",
      "constant": true
    },
    {
      "inputs": [],
      "name": "maxMintForPublic",
      "outputs": [
        {
          "internalType": "uint256",
          "name": "",
          "type": "uint256"
        }
      ],
      "stateMutability": "view",
      "type": "function",
      "constant": true
    },
    {
      "inputs": [],
      "name": "maxSupply",
      "outputs": [
        {
          "internalType": "uint256",
          "name": "",
          "type": "uint256"
        }
      ],
      "stateMutability": "view",
      "type": "function",
      "constant": true
    },
    {
      "inputs": [],
      "name": "maxTxForPrivate",
      "outputs": [
        {
          "internalType": "uint256",
          "name": "",
          "type": "uint256"
        }
      ],
      "stateMutability": "view",
      "type": "function",
      "constant": true
    },
    {
      "inputs": [],
      "name": "maxTxForPublic",
      "outputs": [
        {
          "internalType": "uint256",
          "name": "",
          "type": "uint256"
        }
      ],
      "stateMutability": "view",
      "type": "function",
      "constant": true
    },
    {
      "inputs": [
        {
          "internalType": "address",
          "name": "",
          "type": "address"
        }
      ],
      "name": "mintPerformedPrivate",
      "outputs": [
        {
          "internalType": "uint256",
          "name": "",
          "type": "uint256"
        }
      ],
      "stateMutability": "view",
      "type": "function",
      "constant": true
    },
    {
      "inputs": [
        {
          "internalType": "address",
          "name": "",
          "type": "address"
        }
      ],
      "name": "mintPerformedPublic",
      "outputs": [
        {
          "internalType": "uint256",
          "name": "",
          "type": "uint256"
        }
      ],
      "stateMutability": "view",
      "type": "function",
      "constant": true
    },
    {
      "inputs": [],
      "name": "name",
      "outputs": [
        {
          "internalType": "string",
          "name": "",
          "type": "string"
        }
      ],
      "stateMutability": "view",
      "type": "function",
      "constant": true
    },
    {
      "inputs": [],
      "name": "owner",
      "outputs": [
        {
          "internalType": "address",
          "name": "",
          "type": "address"
        }
      ],
      "stateMutability": "view",
      "type": "function",
      "constant": true
    },
    {
      "inputs": [
        {
          "internalType": "uint256",
          "name": "tokenId",
          "type": "uint256"
        }
      ],
      "name": "ownerOf",
      "outputs": [
        {
          "internalType": "address",
          "name": "",
          "type": "address"
        }
      ],
      "stateMutability": "view",
      "type": "function",
      "constant": true
    },
    {
      "inputs": [],
      "name": "privateSaleisActive",
      "outputs": [
        {
          "internalType": "bool",
          "name": "",
          "type": "bool"
        }
      ],
      "stateMutability": "view",
      "type": "function",
      "constant": true
    },
    {
      "inputs": [],
      "name": "publicSaleisActive",
      "outputs": [
        {
          "internalType": "bool",
          "name": "",
          "type": "bool"
        }
      ],
      "stateMutability": "view",
      "type": "function",
      "constant": true
    },
    {
      "inputs": [],
      "name": "renounceOwnership",
      "outputs": [],
      "stateMutability": "nonpayable",
      "type": "function"
    },
    {
      "inputs": [],
      "name": "revealed",
      "outputs": [
        {
          "internalType": "bool",
          "name": "",
          "type": "bool"
        }
      ],
      "stateMutability": "view",
      "type": "function",
      "constant": true
    },
    {
      "inputs": [
        {
          "internalType": "address",
          "name": "from",
          "type": "address"
        },
        {
          "internalType": "address",
          "name": "to",
          "type": "address"
        },
        {
          "internalType": "uint256",
          "name": "tokenId",
          "type": "uint256"
        }
      ],
      "name": "safeTransferFrom",
      "outputs": [],
      "stateMutability": "nonpayable",
      "type": "function"
    },
    {
      "inputs": [
        {
          "internalType": "address",
          "name": "from",
          "type": "address"
        },
        {
          "internalType": "address",
          "name": "to",
          "type": "address"
        },
        {
          "internalType": "uint256",
          "name": "tokenId",
          "type": "uint256"
        },
        {
          "internalType": "bytes",
          "name": "_data",
          "type": "bytes"
        }
      ],
      "name": "safeTransferFrom",
      "outputs": [],
      "stateMutability": "nonpayable",
      "type": "function"
    },
    {
      "inputs": [
        {
          "internalType": "address",
          "name": "operator",
          "type": "address"
        },
        {
          "internalType": "bool",
          "name": "approved",
          "type": "bool"
        }
      ],
      "name": "setApprovalForAll",
      "outputs": [],
      "stateMutability": "nonpayable",
      "type": "function"
    },
    {
      "inputs": [],
      "name": "symbol",
      "outputs": [
        {
          "internalType": "string",
          "name": "",
          "type": "string"
        }
      ],
      "stateMutability": "view",
      "type": "function",
      "constant": true
    },
    {
      "inputs": [
        {
          "internalType": "uint256",
          "name": "index",
          "type": "uint256"
        }
      ],
      "name": "tokenByIndex",
      "outputs": [
        {
          "internalType": "uint256",
          "name": "",
          "type": "uint256"
        }
      ],
      "stateMutability": "view",
      "type": "function",
      "constant": true
    },
    {
      "inputs": [
        {
          "internalType": "address",
          "name": "owner",
          "type": "address"
        },
        {
          "internalType": "uint256",
          "name": "index",
          "type": "uint256"
        }
      ],
      "name": "tokenOfOwnerByIndex",
      "outputs": [
        {
          "internalType": "uint256",
          "name": "",
          "type": "uint256"
        }
      ],
      "stateMutability": "view",
      "type": "function",
      "constant": true
    },
    {
      "inputs": [],
      "name": "totalMintedInAirdrop",
      "outputs": [
        {
          "internalType": "uint256",
          "name": "",
          "type": "uint256"
        }
      ],
      "stateMutability": "view",
      "type": "function",
      "constant": true
    },
    {
      "inputs": [],
      "name": "totalMintedInPrivate",
      "outputs": [
        {
          "internalType": "uint256",
          "name": "",
          "type": "uint256"
        }
      ],
      "stateMutability": "view",
      "type": "function",
      "constant": true
    },
    {
      "inputs": [],
      "name": "totalMintedInPublic",
      "outputs": [
        {
          "internalType": "uint256",
          "name": "",
          "type": "uint256"
        }
      ],
      "stateMutability": "view",
      "type": "function",
      "constant": true
    },
    {
      "inputs": [],
      "name": "totalSupply",
      "outputs": [
        {
          "internalType": "uint256",
          "name": "",
          "type": "uint256"
        }
      ],
      "stateMutability": "view",
      "type": "function",
      "constant": true
    },
    {
      "inputs": [
        {
          "internalType": "address",
          "name": "from",
          "type": "address"
        },
        {
          "internalType": "address",
          "name": "to",
          "type": "address"
        },
        {
          "internalType": "uint256",
          "name": "tokenId",
          "type": "uint256"
        }
      ],
      "name": "transferFrom",
      "outputs": [],
      "stateMutability": "nonpayable",
      "type": "function"
    },
    {
      "inputs": [
        {
          "internalType": "address",
          "name": "newOwner",
          "type": "address"
        }
      ],
      "name": "transferOwnership",
      "outputs": [],
      "stateMutability": "nonpayable",
      "type": "function"
    },
    {
      "inputs": [],
      "name": "whitelistRoot",
      "outputs": [
        {
          "internalType": "bytes32",
          "name": "",
          "type": "bytes32"
        }
      ],
      "stateMutability": "view",
      "type": "function",
      "constant": true
    },
    {
      "inputs": [
        {
          "internalType": "string",
          "name": "BaseURI",
          "type": "string"
        }
      ],
      "name": "setBaseURI",
      "outputs": [],
      "stateMutability": "nonpayable",
      "type": "function"
    },
    {
      "inputs": [
        {
          "internalType": "bytes32",
          "name": "_whitelistRoot",
          "type": "bytes32"
        }
      ],
      "name": "setWhitelistRoot",
      "outputs": [],
      "stateMutability": "nonpayable",
      "type": "function"
    },
    {
      "inputs": [
        {
          "internalType": "bool",
          "name": "revealedStatus",
          "type": "bool"
        }
      ],
      "name": "changeRevealed",
      "outputs": [],
      "stateMutability": "nonpayable",
      "type": "function"
    },
    {
      "inputs": [
        {
          "internalType": "uint256",
          "name": "_mintAmount",
          "type": "uint256"
        },
        {
          "internalType": "bytes32[]",
          "name": "proof",
          "type": "bytes32[]"
        }
      ],
      "name": "privateSaleMint",
      "outputs": [],
      "stateMutability": "nonpayable",
      "type": "function"
    },
    {
      "inputs": [
        {
          "internalType": "uint256",
          "name": "_mintAmount",
          "type": "uint256"
        },
        {
          "internalType": "bytes32[]",
          "name": "proof",
          "type": "bytes32[]"
        }
      ],
      "name": "publicSaleMint",
      "outputs": [],
      "stateMutability": "nonpayable",
      "type": "function"
    },
    {
      "inputs": [
        {
          "internalType": "address",
          "name": "to",
          "type": "address"
        }
      ],
      "name": "airdrop",
      "outputs": [],
      "stateMutability": "nonpayable",
      "type": "function"
    },
    {
      "inputs": [
        {
          "internalType": "uint256",
          "name": "tokenId",
          "type": "uint256"
        }
      ],
      "name": "tokenURI",
      "outputs": [
        {
          "internalType": "string",
          "name": "",
          "type": "string"
        }
      ],
      "stateMutability": "view",
      "type": "function",
      "constant": true
    },
    {
      "inputs": [
        {
          "internalType": "bytes4",
          "name": "interfaceId",
          "type": "bytes4"
        }
      ],
      "name": "supportsInterface",
      "outputs": [
        {
          "internalType": "bool",
          "name": "",
          "type": "bool"
        }
      ],
      "stateMutability": "view",
      "type": "function",
      "constant": true
    }
  ],
  "bytecode": "0x60806040526002600b556003600c556000600d55610190600e8190556014600f8190556200002d9162000257565b601055426012819055620000439060326200023c565b601381905562000056906103e86200023c565b6014819055601555600060168190556017556002601a556003601b55601e805460ff191690557fe48e16d82c4a66e30ba3a731d1df05af5a006c954e90512805f233ff2b6bfc1d601f55348015620000ad57600080fd5b50604080518082018252600781526652616e646f6d7360c81b60208083019182528351808501909452600584526452414e445360d81b908401528151919291620000fa9160009162000196565b5080516200011090600190602084019062000196565b5050506200012d620001276200014060201b60201c565b62000144565b6011805460ff19166001179055620002c4565b3390565b600a80546001600160a01b038381166001600160a01b0319831681179093556040519116919082907f8be0079c531659141344cd1fd0a4f28419497f9722a3daafe3b4186f6b6457e090600090a35050565b828054620001a49062000271565b90600052602060002090601f016020900481019282620001c8576000855562000213565b82601f10620001e357805160ff191683800117855562000213565b8280016001018555821562000213579182015b8281111562000213578251825591602001919060010190620001f6565b506200022192915062000225565b5090565b5b8082111562000221576000815560010162000226565b60008219821115620002525762000252620002ae565b500190565b6000828210156200026c576200026c620002ae565b500390565b600181811c908216806200028657607f821691505b60208210811415620002a857634e487b7160e01b600052602260045260246000fd5b50919050565b634e487b7160e01b600052601160045260246000fd5b612baf80620002d46000396000f3fe608060405234801561001057600080fd5b50600436106102bb5760003560e01c806370a0823111610182578063b88d4fde116100e9578063e1727fc6116100a2578063f259a29e1161007c578063f259a29e146105ee578063f2fde38b146105f6578063f5aa406d14610609578063fbf805a41461061c576102bb565b8063e1727fc614610596578063e75283871461059f578063e985e9c5146105b2576102bb565b8063b88d4fde1461052b578063c87b56dd1461053e578063cf3604dc14610551578063d5abeb0114610564578063d6f865a31461056d578063de41ec3214610576576102bb565b8063914014f61161013b578063914014f6146104d557806395d89b41146104f5578063a22cb465146104fd578063ac52433414610510578063ade4685114610519578063b3170ceb14610522576102bb565b806370a0823114610477578063715018a61461048a578063727da42b146104925780637eb542b7146104b257806386fb2708146104bb5780638da5cb5b146104c4576102bb565b80632f745c59116102265780634f6ccce7116101df5780634f6ccce71461041f578063518302271461043257806355f804b31461043f5780635b429d43146104525780635e8034741461045b5780636352211e14610464576102bb565b80632f745c59146103cb57806336728c0f146103de57806336b7eb20146103f1578063386bfc98146103fa5780633872be691461040357806342842e0e1461040c576102bb565b806318160ddd1161027857806318160ddd1461037457806320596c561461037c57806321860a051461038f578063228b75f4146103a257806322f3e2d4146103ab57806323b872dd146103b8576102bb565b806301ffc9a7146102c057806306fdde03146102e8578063081812fc146102fd578063082e985414610328578063095ea7b31461033f57806312fff47c14610354575b600080fd5b6102d36102ce366004612702565b61062e565b60405190151581526020015b60405180910390f35b6102f0610641565b6040516102df9190612932565b61031061030b3660046126ea565b6106d3565b6040516001600160a01b0390911681526020016102df565b61033160155481565b6040519081526020016102df565b61035261034d3660046126a7565b61076d565b005b61033161036236600461253f565b60196020526000908152604090205481565b600854610331565b6011546102d39062010000900460ff1681565b61035261039d36600461253f565b610883565b61033160145481565b6011546102d39060ff1681565b6103526103c636600461258b565b6109b3565b6103316103d93660046126a7565b6109e4565b6103526103ec3660046127a7565b610a7a565b61033160165481565b610331601f5481565b61033160175481565b61035261041a36600461258b565b610eb9565b61033161042d3660046126ea565b610ed4565b601e546102d39060ff1681565b61035261044d36600461273a565b610f75565b61033160105481565b610331601a5481565b6103106104723660046126ea565b610fab565b61033161048536600461253f565b611022565b6103526110a9565b6103316104a036600461253f565b601c6020526000908152604090205481565b610331601b5481565b610331600d5481565b600a546001600160a01b0316610310565b6103316104e336600461253f565b601d6020526000908152604090205481565b6102f06110df565b61035261050b36600461267e565b6110ee565b610331600b5481565b61033160135481565b610331600c5481565b6103526105393660046125c6565b6110fd565b6102f061054c3660046126ea565b611135565b61035261055f3660046126d0565b611251565b610331600e5481565b610331600f5481565b61033161058436600461253f565b60186020526000908152604090205481565b61033160125481565b6103526105ad3660046127a7565b61128e565b6102d36105c0366004612559565b6001600160a01b03918216600090815260056020908152604080832093909416825291909152205460ff1690565b6102f06116fd565b61035261060436600461253f565b61178b565b6103526106173660046126ea565b611826565b6011546102d390610100900460ff1681565b600061063982611855565b90505b919050565b60606000805461065090612abd565b80601f016020809104026020016040519081016040528092919081815260200182805461067c90612abd565b80156106c95780601f1061069e576101008083540402835291602001916106c9565b820191906000526020600020905b8154815290600101906020018083116106ac57829003601f168201915b5050505050905090565b6000818152600260205260408120546001600160a01b03166107515760405162461bcd60e51b815260206004820152602c60248201527f4552433732313a20617070726f76656420717565727920666f72206e6f6e657860448201526b34b9ba32b73a103a37b5b2b760a11b60648201526084015b60405180910390fd5b506000908152600460205260409020546001600160a01b031690565b600061077882610fab565b9050806001600160a01b0316836001600160a01b031614156107e65760405162461bcd60e51b815260206004820152602160248201527f4552433732313a20617070726f76616c20746f2063757272656e74206f776e656044820152603960f91b6064820152608401610748565b336001600160a01b0382161480610802575061080281336105c0565b6108745760405162461bcd60e51b815260206004820152603860248201527f4552433732313a20617070726f76652063616c6c6572206973206e6f74206f7760448201527f6e6572206e6f7220617070726f76656420666f7220616c6c00000000000000006064820152608401610748565b61087e838361187a565b505050565b600a546001600160a01b031633146108ad5760405162461bcd60e51b815260040161074890612997565b60115462010000900460ff16151560011461090a5760405162461bcd60e51b815260206004820152601d60248201527f5075626c69632073616c65206973206e6f7420616374697665207965740000006044820152606401610748565b6001600f54101561096c5760405162461bcd60e51b815260206004820152602660248201527f5468652052454d41494e494e4720414d4f554e5420464f522041495244524f5060448201526505320495320360d41b6064820152608401610748565b61097e8161097960085490565b6118e8565b6001601660008282546109919190612a4e565b925050819055506001600f60008282546109ab9190612a7a565b909155505050565b6109bd3382611a37565b6109d95760405162461bcd60e51b8152600401610748906129cc565b61087e838383611b2e565b60006109ef83611022565b8210610a515760405162461bcd60e51b815260206004820152602b60248201527f455243373231456e756d657261626c653a206f776e657220696e646578206f7560448201526a74206f6620626f756e647360a81b6064820152608401610748565b506001600160a01b03919091166000908152600660209081526040808320938352929052205490565b610a82611cd5565b610a8a611d0e565b610a9381611d3b565b610a9c57600080fd5b601154610100900460ff1615610af45760405162461bcd60e51b815260206004820152601960248201527f507269766174652073616c65206973207374696c6c206f6e20000000000000006044820152606401610748565b60115462010000900460ff161515600114610b5d5760405162461bcd60e51b8152602060048201526024808201527f207075626c69632073616c6520206973206e6f74206163746976652079657420604482015263081e595d60e21b6064820152608401610748565b60008211610ba95760405162461bcd60e51b8152602060048201526019602482015278596f752063616e74206d696e74205a65726f20546f6b656e7360381b6044820152606401610748565b601a54821115610bfb5760405162461bcd60e51b815260206004820152601b60248201527f596f752063616e2774206d696e74206d6f7265207468616e20322e00000000006044820152606401610748565b600b543360009081526018602052604090205410610c815760405162461bcd60e51b815260206004820152603d60248201527f546865206d6178206e756d626572206f6620747820746861742063616e20626560448201527f2073656e7420696e20746865207075626c69632073616c6520697320320000006064820152608401610748565b601a54336000908152601c6020526040902054610c9f908490612a4e565b1115610d735760405162461bcd60e51b815260206004820152608b60248201527f4f6e206164646974696f6e206f66207468697320616d6f756e7420796f75206160448201527f72652061626f757420746f206d696e742c20596f757220746f74616c206d696e60648201527f74656420776f756c642065786365656420746865206d6178206f66203220696e60848201527f207075626c69632073616c65202c636f6e7369646572207265647563696e672060a48201526a3a34329030b6b7bab73a1760a91b60c482015260e401610748565b600f54600e54610d839190612a7a565b60085410610df95760405162461bcd60e51b815260206004820152603d60248201527f546865206d6178206e756d626572206f66206e6674732020666f72207468697360448201527f207075626c696320706861736520686173206265656e206d696e7465640000006064820152608401610748565b6000610e0460085490565b905060005b83811015610e3857610e2633610e1e84612af2565b9350836118e8565b80610e3081612af2565b915050610e09565b50336000908152601860205260408120805460019290610e59908490612a4e565b925050819055508260106000828254610e729190612a7a565b925050819055508260176000828254610e8b9190612a4e565b9091555050336000908152601c602052604081208054859290610eaf908490612a4e565b9091555050505050565b61087e838383604051806020016040528060008152506110fd565b6000610edf60085490565b8210610f425760405162461bcd60e51b815260206004820152602c60248201527f455243373231456e756d657261626c653a20676c6f62616c20696e646578206f60448201526b7574206f6620626f756e647360a01b6064820152608401610748565b60088281548110610f6357634e487b7160e01b600052603260045260246000fd5b90600052602060002001549050919050565b600a546001600160a01b03163314610f9f5760405162461bcd60e51b815260040161074890612997565b61087e6020838361247f565b6000818152600260205260408120546001600160a01b0316806106395760405162461bcd60e51b815260206004820152602960248201527f4552433732313a206f776e657220717565727920666f72206e6f6e657869737460448201526832b73a103a37b5b2b760b91b6064820152608401610748565b60006001600160a01b03821661108d5760405162461bcd60e51b815260206004820152602a60248201527f4552433732313a2062616c616e636520717565727920666f7220746865207a65604482015269726f206164647265737360b01b6064820152608401610748565b506001600160a01b031660009081526003602052604090205490565b600a546001600160a01b031633146110d35760405162461bcd60e51b815260040161074890612997565b6110dd6000611d8a565b565b60606001805461065090612abd565b6110f9338383611ddc565b5050565b6111073383611a37565b6111235760405162461bcd60e51b8152600401610748906129cc565b61112f84848484611eab565b50505050565b6000818152600260205260409020546060906001600160a01b03166111b45760405162461bcd60e51b815260206004820152602f60248201527f4552433732314d657461646174613a2055524920717565727920666f72206e6f60448201526e3732bc34b9ba32b73a103a37b5b2b760891b6064820152608401610748565b60006111be611ede565b601e5490915060ff166112125760008151116111e9576040518060200160405280600081525061120a565b806040516020016111fa91906128c6565b6040516020818303038152906040525b91505061063c565b6000815111611230576040518060200160405280600081525061120a565b8061123a84611eed565b6040516020016111fa929190612887565b50919050565b600a546001600160a01b0316331461127b5760405162461bcd60e51b815260040161074890612997565b601e805460ff1916911515919091179055565b611296611cd5565b61129e611d0e565b6112a781611d3b565b6112b057600080fd5b60115462010000900460ff16156113555760405162461bcd60e51b815260206004820152605d60248201527f507269766174652073616c65206973206f766572202c7075626c69632073616c60448201527f65206973206e6f77202061637469766520616e6420796f752063616e2774206d60648201527f696e7420696e20707269766174652073616c652020616e796d6f72652e000000608482015260a401610748565b60115460ff6101009091041615156001146113b25760405162461bcd60e51b815260206004820152601f60248201527f507269766174652073616c65206973206e6f74206163746976652079657420006044820152606401610748565b600082116113fe5760405162461bcd60e51b8152602060048201526019602482015278596f752063616e74206d696e74205a65726f20546f6b656e7360381b6044820152606401610748565b601b548211156114505760405162461bcd60e51b815260206004820152601b60248201527f596f752063616e2774206d696e74206d6f7265207468616e20332e00000000006044820152606401610748565b600c5433600090815260196020526040902054106114d65760405162461bcd60e51b815260206004820152603f60248201527f546865206d6178206e756d626572206f6620747820746861742063616e20626560448201527f2073656e7420696e2074686520707269766174652073616c6520697320332e006064820152608401610748565b601b54336000908152601d60205260409020546114f4908490612a4e565b11156115c95760405162461bcd60e51b815260206004820152608c60248201527f4f6e206164646974696f6e206f66207468697320616d6f756e7420796f75206160448201527f72652061626f757420746f206d696e742c20596f757220746f74616c206d696e60648201527f74656420776f756c642065786365656420746865206d6178206f66203320696e60848201527f20707269766174652073616c65202c636f6e7369646572207265647563696e6760a48201526b103a34329030b6b7bab73a1760a11b60c482015260e401610748565b600f54600e546115d99190612a7a565b6008541061164f5760405162461bcd60e51b815260206004820152603f60248201527f546865206d6178206e756d626572206f66206e6674732020666f72207468697360448201527f207072697661746520706861736520686173206265656e206d696e7465642e006064820152608401610748565b600061165a60085490565b905060005b838110156116865761167433610e1e84612af2565b8061167e81612af2565b91505061165f565b503360009081526019602052604081208054600192906116a7908490612a4e565b9250508190555082600d60008282546116c09190612a4e565b9250508190555082601060008282546116d99190612a7a565b9091555050336000908152601d602052604081208054859290610eaf908490612a4e565b6020805461170a90612abd565b80601f016020809104026020016040519081016040528092919081815260200182805461173690612abd565b80156117835780601f1061175857610100808354040283529160200191611783565b820191906000526020600020905b81548152906001019060200180831161176657829003601f168201915b505050505081565b600a546001600160a01b031633146117b55760405162461bcd60e51b815260040161074890612997565b6001600160a01b03811661181a5760405162461bcd60e51b815260206004820152602660248201527f4f776e61626c653a206e6577206f776e657220697320746865207a65726f206160448201526564647265737360d01b6064820152608401610748565b61182381611d8a565b50565b600a546001600160a01b031633146118505760405162461bcd60e51b815260040161074890612997565b601f55565b60006001600160e01b0319821663780e9d6360e01b1480610639575061063982612008565b600081815260046020526040902080546001600160a01b0319166001600160a01b03841690811790915581906118af82610fab565b6001600160a01b03167f8c5be1e5ebec7d5bd14f71427d1e84f3dd0314c0f7b2291e5b200ac8c7c3b92560405160405180910390a45050565b6001600160a01b03821661193e5760405162461bcd60e51b815260206004820181905260248201527f4552433732313a206d696e7420746f20746865207a65726f20616464726573736044820152606401610748565b6000818152600260205260409020546001600160a01b0316156119a35760405162461bcd60e51b815260206004820152601c60248201527f4552433732313a20746f6b656e20616c7265616479206d696e746564000000006044820152606401610748565b6119af60008383612058565b6001600160a01b03821660009081526003602052604081208054600192906119d8908490612a4e565b909155505060008181526002602052604080822080546001600160a01b0319166001600160a01b03861690811790915590518392907fddf252ad1be2c89b69c2b068fc378daa952ba7f163c4a11628f55a4df523b3ef908290a46110f9565b6000818152600260205260408120546001600160a01b0316611ab05760405162461bcd60e51b815260206004820152602c60248201527f4552433732313a206f70657261746f7220717565727920666f72206e6f6e657860448201526b34b9ba32b73a103a37b5b2b760a11b6064820152608401610748565b6000611abb83610fab565b9050806001600160a01b0316846001600160a01b03161480611b0257506001600160a01b0380821660009081526005602090815260408083209388168352929052205460ff165b80611b265750836001600160a01b0316611b1b846106d3565b6001600160a01b0316145b949350505050565b826001600160a01b0316611b4182610fab565b6001600160a01b031614611ba55760405162461bcd60e51b815260206004820152602560248201527f4552433732313a207472616e736665722066726f6d20696e636f72726563742060448201526437bbb732b960d91b6064820152608401610748565b6001600160a01b038216611c075760405162461bcd60e51b8152602060048201526024808201527f4552433732313a207472616e7366657220746f20746865207a65726f206164646044820152637265737360e01b6064820152608401610748565b611c12838383612058565b611c1d60008261187a565b6001600160a01b0383166000908152600360205260408120805460019290611c46908490612a7a565b90915550506001600160a01b0382166000908152600360205260408120805460019290611c74908490612a4e565b909155505060008181526002602052604080822080546001600160a01b0319166001600160a01b0386811691821790925591518493918716917fddf252ad1be2c89b69c2b068fc378daa952ba7f163c4a11628f55a4df523b3ef91a461087e565b6013544210158015611ce8575060145442105b15611d01576011805461ff0019166101001790556110dd565b6011805461ff0019169055565b6015544210611d2d576011805462ff00001916620100001790556110dd565b6011805462ff000019169055565b6040516bffffffffffffffffffffffff193360601b1660208201526000908190603401604051602081830303815290604052805190602001209050611d8383601f5483612063565b9392505050565b600a80546001600160a01b038381166001600160a01b0319831681179093556040519116919082907f8be0079c531659141344cd1fd0a4f28419497f9722a3daafe3b4186f6b6457e090600090a35050565b816001600160a01b0316836001600160a01b03161415611e3e5760405162461bcd60e51b815260206004820152601960248201527f4552433732313a20617070726f766520746f2063616c6c6572000000000000006044820152606401610748565b6001600160a01b03838116600081815260056020908152604080832094871680845294825291829020805460ff191686151590811790915591519182527f17307eab39ab6107e8899845ad3d59bd9653f200f220920489ca2b5937696c31910160405180910390a3505050565b611eb6848484611b2e565b611ec284848484612079565b61112f5760405162461bcd60e51b815260040161074890612945565b60606020805461065090612abd565b606081611f1257506040805180820190915260018152600360fc1b602082015261063c565b8160005b8115611f3c5780611f2681612af2565b9150611f359050600a83612a66565b9150611f16565b60008167ffffffffffffffff811115611f6557634e487b7160e01b600052604160045260246000fd5b6040519080825280601f01601f191660200182016040528015611f8f576020820181803683370190505b5090505b8415611b2657611fa4600183612a7a565b9150611fb1600a86612b0d565b611fbc906030612a4e565b60f81b818381518110611fdf57634e487b7160e01b600052603260045260246000fd5b60200101906001600160f81b031916908160001a905350612001600a86612a66565b9450611f93565b60006001600160e01b031982166380ac58cd60e01b148061203957506001600160e01b03198216635b5e139f60e01b145b8061063957506301ffc9a760e01b6001600160e01b0319831614610639565b61087e838383612186565b6000826120708584612243565b14949350505050565b60006001600160a01b0384163b1561217b57604051630a85bd0160e11b81526001600160a01b0385169063150b7a02906120bd9033908990889088906004016128f5565b602060405180830381600087803b1580156120d757600080fd5b505af1925050508015612107575060408051601f3d908101601f191682019092526121049181019061271e565b60015b612161573d808015612135576040519150601f19603f3d011682016040523d82523d6000602084013e61213a565b606091505b5080516121595760405162461bcd60e51b815260040161074890612945565b805181602001fd5b6001600160e01b031916630a85bd0160e11b149050611b26565b506001949350505050565b6001600160a01b0383166121e1576121dc81600880546000838152600960205260408120829055600182018355919091527ff3f7a9fe364faab93b216da50a3214154f22a0a2b415b23a84c8169e8b636ee30155565b612204565b816001600160a01b0316836001600160a01b0316146122045761220483826122c5565b6001600160a01b0382166122205761221b81612362565b61087e565b826001600160a01b0316826001600160a01b03161461087e5761087e828261243b565b600081815b84518110156122bd57600085828151811061227357634e487b7160e01b600052603260045260246000fd5b6020026020010151905080831161229957600083815260208290526040902092506122aa565b600081815260208490526040902092505b50806122b581612af2565b915050612248565b509392505050565b600060016122d284611022565b6122dc9190612a7a565b60008381526007602052604090205490915080821461232f576001600160a01b03841660009081526006602090815260408083208584528252808320548484528184208190558352600790915290208190555b5060009182526007602090815260408084208490556001600160a01b039094168352600681528383209183525290812055565b60085460009061237490600190612a7a565b600083815260096020526040812054600880549394509092849081106123aa57634e487b7160e01b600052603260045260246000fd5b9060005260206000200154905080600883815481106123d957634e487b7160e01b600052603260045260246000fd5b600091825260208083209091019290925582815260099091526040808220849055858252812055600880548061241f57634e487b7160e01b600052603160045260246000fd5b6001900381819060005260206000200160009055905550505050565b600061244683611022565b6001600160a01b039093166000908152600660209081526040808320868452825280832085905593825260079052919091209190915550565b82805461248b90612abd565b90600052602060002090601f0160209004810192826124ad57600085556124f3565b82601f106124c65782800160ff198235161785556124f3565b828001600101855582156124f3579182015b828111156124f35782358255916020019190600101906124d8565b506124ff929150612503565b5090565b5b808211156124ff5760008155600101612504565b80356001600160a01b038116811461063c57600080fd5b8035801515811461063c57600080fd5b600060208284031215612550578081fd5b611d8382612518565b6000806040838503121561256b578081fd5b61257483612518565b915061258260208401612518565b90509250929050565b60008060006060848603121561259f578081fd5b6125a884612518565b92506125b660208501612518565b9150604084013590509250925092565b600080600080608085870312156125db578081fd5b6125e485612518565b935060206125f3818701612518565b935060408601359250606086013567ffffffffffffffff80821115612616578384fd5b818801915088601f830112612629578384fd5b81358181111561263b5761263b612b4d565b61264d601f8201601f19168501612a1d565b91508082528984828501011115612662578485fd5b8084840185840137810190920192909252939692955090935050565b60008060408385031215612690578182fd5b61269983612518565b91506125826020840161252f565b600080604083850312156126b9578182fd5b6126c283612518565b946020939093013593505050565b6000602082840312156126e1578081fd5b611d838261252f565b6000602082840312156126fb578081fd5b5035919050565b600060208284031215612713578081fd5b8135611d8381612b63565b60006020828403121561272f578081fd5b8151611d8381612b63565b6000806020838503121561274c578182fd5b823567ffffffffffffffff80821115612763578384fd5b818501915085601f830112612776578384fd5b813581811115612784578485fd5b866020828501011115612795578485fd5b60209290920196919550909350505050565b600080604083850312156127b9578182fd5b8235915060208084013567ffffffffffffffff808211156127d8578384fd5b818601915086601f8301126127eb578384fd5b8135818111156127fd576127fd612b4d565b8060051b915061280e848301612a1d565b8181528481019084860184860187018b1015612828578788fd5b8795505b8386101561284a57803583526001959095019491860191860161282c565b508096505050505050509250929050565b60008151808452612873816020860160208601612a91565b601f01601f19169290920160200192915050565b60008351612899818460208801612a91565b8351908301906128ad818360208801612a91565b64173539b7b760d91b9101908152600501949350505050565b600082516128d8818460208701612a91565b6a3434b23232b7173539b7b760a91b920191825250600b01919050565b6001600160a01b03858116825284166020820152604081018390526080606082018190526000906129289083018461285b565b9695505050505050565b600060208252611d83602083018461285b565b60208082526032908201527f4552433732313a207472616e7366657220746f206e6f6e20455243373231526560408201527131b2b4bb32b91034b6b83632b6b2b73a32b960711b606082015260800190565b6020808252818101527f4f776e61626c653a2063616c6c6572206973206e6f7420746865206f776e6572604082015260600190565b60208082526031908201527f4552433732313a207472616e736665722063616c6c6572206973206e6f74206f6040820152701ddb995c881b9bdc88185c1c1c9bdd9959607a1b606082015260800190565b604051601f8201601f1916810167ffffffffffffffff81118282101715612a4657612a46612b4d565b604052919050565b60008219821115612a6157612a61612b21565b500190565b600082612a7557612a75612b37565b500490565b600082821015612a8c57612a8c612b21565b500390565b60005b83811015612aac578181015183820152602001612a94565b8381111561112f5750506000910152565b600181811c90821680612ad157607f821691505b6020821081141561124b57634e487b7160e01b600052602260045260246000fd5b6000600019821415612b0657612b06612b21565b5060010190565b600082612b1c57612b1c612b37565b500690565b634e487b7160e01b600052601160045260246000fd5b634e487b7160e01b600052601260045260246000fd5b634e487b7160e01b600052604160045260246000fd5b6001600160e01b03198116811461182357600080fdfea26469706673582212206b9556e669c6a0a558a0c4215267f5fa634320b659af2d6d9c51c51ba6007b3164736f6c63430008030033",
  "immutableReferences": {},
  "source": "// SPDX-License-Identifier: MIT\r\npragma solidity ^0.8.3;\r\n\r\nimport \"../client/node_modules/@openzeppelin/contracts/token/ERC721/ERC721.sol\";\r\nimport \"../client/node_modules/@openzeppelin/contracts/token/ERC721/extensions/ERC721Enumerable.sol\";\r\nimport \"../client/node_modules/@openzeppelin/contracts/access/Ownable.sol\";\r\nimport \"../client/node_modules/@openzeppelin/contracts/utils/Strings.sol\";\r\nimport \"../client/node_modules/@openzeppelin/contracts/utils/cryptography/MerkleProof.sol\";\r\n\r\ncontract Randoms is ERC721, ERC721Enumerable, Ownable {\r\n    using Strings for uint256;\r\n\r\n    uint256 public maxTxForPublic = 2;\r\n    uint256 public maxTxForPrivate = 3;\r\n    uint256 public totalMintedInPrivate = 0;\r\n\r\n    uint256 public maxSupply = 400;\r\n    uint256 public amountForAIRDROPS = 20;\r\n    uint256 public availableToMintInPublic = maxSupply - amountForAIRDROPS;\r\n\r\n    bool public isActive;\r\n    bool public privateSaleisActive;\r\n    bool public publicSaleisActive;\r\n\r\n    uint256 public contractDeployedTime = block.timestamp;\r\n\r\n    uint256 public _privateSaleTimeStart = contractDeployedTime + 50;\r\n    uint256 public _privateSaleTimeEnds = _privateSaleTimeStart + 1000;\r\n\r\n    uint256 public PublicSaleTimeStart = _privateSaleTimeEnds;\r\n    uint256 public totalMintedInAirdrop = 0;\r\n    uint256 public totalMintedInPublic = 0;\r\n\r\n    mapping(address => uint256) public TxPerformedPublic;\r\n    mapping(address => uint256) public TxPerformedPrivate;\r\n\r\n    uint256 public maxMintForPublic = 2;\r\n    uint256 public maxMintForPrivate = 3;\r\n\r\n    mapping(address => uint256) public mintPerformedPublic;\r\n    mapping(address => uint256) public mintPerformedPrivate;\r\n    // uint256 public price = 0.01 ether;\r\n    // Come back later to implement  a price for public sale\r\n    // Withdraw Function also ...\r\n\r\n    bool public revealed = false;\r\n    bytes32 public whitelistRoot =\r\n        0xe48e16d82c4a66e30ba3a731d1df05af5a006c954e90512805f233ff2b6bfc1d;\r\n\r\n    constructor() ERC721(\"Randoms\", \"RANDS\") {\r\n        isActive = true;\r\n    }\r\n\r\n    modifier PRIVATE_SALE_ACTIVE() {\r\n        require(privateSaleisActive == true, \"Private sale is not active yet\");\r\n        _;\r\n    }\r\n    modifier PUBLIC_SALE_ACTIVE() {\r\n        require(publicSaleisActive == true, \"Public sale is not active yet\");\r\n        _;\r\n    }\r\n    // BASE TOKEN URI FOR METADATA BLAHH, NEED TO FIGURE THIS OUT ASAP\r\n    string public baseURI_;\r\n\r\n    function _baseURI() internal view override returns (string memory) {\r\n        return baseURI_;\r\n    }\r\n\r\n    function setBaseURI(string calldata BaseURI) external onlyOwner {\r\n        baseURI_ = BaseURI;\r\n    }\r\n\r\n    function setWhitelistRoot(bytes32 _whitelistRoot) public onlyOwner {\r\n        whitelistRoot = _whitelistRoot;\r\n    }\r\n\r\n    function changeRevealed(bool revealedStatus) public onlyOwner {\r\n        revealed = revealedStatus;\r\n    }\r\n\r\n    // PrivateSale\r\n    function _checkPrivateActive() private {\r\n        if (\r\n            block.timestamp >= _privateSaleTimeStart &&\r\n            block.timestamp < _privateSaleTimeEnds\r\n        ) {\r\n            privateSaleisActive = true;\r\n        } else {\r\n            privateSaleisActive = false;\r\n        }\r\n    }\r\n\r\n    // PublicSale\r\n    function _checkPublicActive() private {\r\n        if (block.timestamp >= PublicSaleTimeStart) {\r\n            publicSaleisActive = true;\r\n        } else {\r\n            publicSaleisActive = false;\r\n        }\r\n    }\r\n\r\n    function privateSaleMint(uint256 _mintAmount, bytes32[] memory proof)\r\n        public\r\n    {\r\n        _checkPrivateActive();\r\n        _checkPublicActive();\r\n        require(isCertifiedToMint(proof));\r\n\r\n        require(\r\n            publicSaleisActive == false,\r\n            \"Private sale is over ,public sale is now  active and you can't mint in private sale  anymore.\"\r\n        );\r\n        require(privateSaleisActive == true, \"Private sale is not active yet \");\r\n        require(_mintAmount > 0, \"You cant mint Zero Tokens\");\r\n        require(\r\n            _mintAmount <= maxMintForPrivate,\r\n            \"You can't mint more than 3.\"\r\n        );\r\n\r\n        require(\r\n            TxPerformedPrivate[msg.sender] < maxTxForPrivate,\r\n            \"The max number of tx that can be sent in the private sale is 3.\"\r\n        );\r\n        require(\r\n            mintPerformedPrivate[msg.sender] + _mintAmount <= maxMintForPrivate,\r\n            \"On addition of this amount you are about to mint, Your total minted would exceed the max of 3 in private sale ,consider reducing the amount.\"\r\n        );\r\n        require(\r\n            totalSupply() < maxSupply - amountForAIRDROPS,\r\n            \"The max number of nfts  for this private phase has been minted.\"\r\n        );\r\n\r\n        uint256 id = totalSupply();\r\n        for (uint256 i = 0; i < _mintAmount; i++) {\r\n            _mint(msg.sender, ++id);\r\n        }\r\n        TxPerformedPrivate[msg.sender] += 1;\r\n        totalMintedInPrivate += _mintAmount;\r\n        availableToMintInPublic -= _mintAmount;\r\n        mintPerformedPrivate[msg.sender] += _mintAmount;\r\n    }\r\n\r\n    function publicSaleMint(uint256 _mintAmount,bytes32[] memory proof) public {\r\n        _checkPrivateActive();\r\n        _checkPublicActive();\r\n        require(isCertifiedToMint(proof));\r\n\r\n        require(privateSaleisActive == false, \"Private sale is still on \");\r\n        require(\r\n            publicSaleisActive == true,\r\n            \" public sale  is not active yet  yet\"\r\n        );\r\n        require(_mintAmount > 0, \"You cant mint Zero Tokens\");\r\n        require(_mintAmount <= maxMintForPublic, \"You can't mint more than 2.\");\r\n\r\n        require(\r\n            TxPerformedPublic[msg.sender] < maxTxForPublic,\r\n            \"The max number of tx that can be sent in the public sale is 2\"\r\n        );\r\n        require(\r\n            mintPerformedPublic[msg.sender] + _mintAmount <= maxMintForPublic,\r\n            \"On addition of this amount you are about to mint, Your total minted would exceed the max of 2 in public sale ,consider reducing the amount.\"\r\n        );\r\n        require(\r\n            totalSupply() < maxSupply - amountForAIRDROPS,\r\n            \"The max number of nfts  for this public phase has been minted\"\r\n        );\r\n        uint256 id = totalSupply();\r\n        for (uint256 i = 0; i < _mintAmount; i++) {\r\n            _mint(msg.sender, ++id);\r\n        }\r\n        TxPerformedPublic[msg.sender] += 1;\r\n        availableToMintInPublic -= _mintAmount;\r\n        totalMintedInPublic += _mintAmount;\r\n        mintPerformedPublic[msg.sender] += _mintAmount;\r\n    }\r\n\r\n    function airdrop(address to) public onlyOwner PUBLIC_SALE_ACTIVE {\r\n        // Thought this line was useful, i really just used a modifier , figure out which saves more gas\r\n        // require(block.timestamp > _privateSaleTimeEnds);\r\n        require(\r\n            amountForAIRDROPS >= 1,\r\n            \"The REMAINING AMOUNT FOR AIRDROPS IS 0\"\r\n        );\r\n        // uint id = totalSupply();\r\n        _mint(to, totalSupply());\r\n        totalMintedInAirdrop += 1;\r\n        amountForAIRDROPS -= 1;\r\n    }\r\n\r\n    function isCertifiedToMint(bytes32[] memory proof)\r\n        private\r\n        view\r\n        returns (bool)\r\n    {\r\n        bytes32 leaf = keccak256(abi.encodePacked(msg.sender));\r\n\r\n        return MerkleProof.verify(proof, whitelistRoot, leaf);\r\n    }\r\n\r\n    function tokenURI(uint256 tokenId)\r\n        public\r\n        view\r\n        override\r\n        returns (string memory)\r\n    {\r\n        require(\r\n            _exists(tokenId),\r\n            \"ERC721Metadata: URI query for nonexistent token\"\r\n        );\r\n        string memory baseURI = _baseURI();\r\n\r\n        if (revealed == false) {\r\n            return\r\n                bytes(baseURI).length > 0\r\n                    ? string(abi.encodePacked(baseURI, \"hidden.json\"))\r\n                    : \"\";\r\n        } else {\r\n            return\r\n                bytes(baseURI).length > 0\r\n                    ? string(\r\n                        abi.encodePacked(baseURI, tokenId.toString(), \".json\")\r\n                    )\r\n                    : \"\";\r\n        }\r\n    }\r\n\r\n    function _beforeTokenTransfer(\r\n        address from,\r\n        address to,\r\n        uint256 tokenId\r\n    ) internal override(ERC721, ERC721Enumerable) {\r\n        super._beforeTokenTransfer(from, to, tokenId);\r\n    }\r\n\r\n    function supportsInterface(bytes4 interfaceId)\r\n        public\r\n        view\r\n        override(ERC721, ERC721Enumerable)\r\n        returns (bool)\r\n    {\r\n        return super.supportsInterface(interfaceId);\r\n    }\r\n}\r\n",
  "sourcePath": "C:\\Users\\Daniel Awodeji\\Desktop\\CreativeJuices\\contracts\\Randoms.sol",
  "compiler": {
    "name": "solc",
    "version": "0.8.3+commit.8d00100c.Emscripten.clang"
  },
  "schemaVersion": "3.4.4",
  "updatedAt": "2022-06-17T23:07:52.500Z",
  "networkType": "ethereum",
  "devdoc": {
    "kind": "dev",
    "methods": {
      "approve(address,uint256)": {
        "details": "See {IERC721-approve}."
      },
      "balanceOf(address)": {
        "details": "See {IERC721-balanceOf}."
      },
      "getApproved(uint256)": {
        "details": "See {IERC721-getApproved}."
      },
      "isApprovedForAll(address,address)": {
        "details": "See {IERC721-isApprovedForAll}."
      },
      "name()": {
        "details": "See {IERC721Metadata-name}."
      },
      "owner()": {
        "details": "Returns the address of the current owner."
      },
      "ownerOf(uint256)": {
        "details": "See {IERC721-ownerOf}."
      },
      "renounceOwnership()": {
        "details": "Leaves the contract without owner. It will not be possible to call `onlyOwner` functions anymore. Can only be called by the current owner. NOTE: Renouncing ownership will leave the contract without an owner, thereby removing any functionality that is only available to the owner."
      },
      "safeTransferFrom(address,address,uint256)": {
        "details": "See {IERC721-safeTransferFrom}."
      },
      "safeTransferFrom(address,address,uint256,bytes)": {
        "details": "See {IERC721-safeTransferFrom}."
      },
      "setApprovalForAll(address,bool)": {
        "details": "See {IERC721-setApprovalForAll}."
      },
      "symbol()": {
        "details": "See {IERC721Metadata-symbol}."
      },
      "tokenByIndex(uint256)": {
        "details": "See {IERC721Enumerable-tokenByIndex}."
      },
      "tokenOfOwnerByIndex(address,uint256)": {
        "details": "See {IERC721Enumerable-tokenOfOwnerByIndex}."
      },
      "tokenURI(uint256)": {
        "details": "See {IERC721Metadata-tokenURI}."
      },
      "totalSupply()": {
        "details": "See {IERC721Enumerable-totalSupply}."
      },
      "transferFrom(address,address,uint256)": {
        "details": "See {IERC721-transferFrom}."
      },
      "transferOwnership(address)": {
        "details": "Transfers ownership of the contract to a new account (`newOwner`). Can only be called by the current owner."
      }
    },
    "version": 1
  },
  "userdoc": {
    "kind": "user",
    "methods": {},
    "version": 1
  }
}